:100000000C945A000C947E010C9477000C947700A9
:100010000C9477000C9477000C9477000C94770084
:100020000C9477000C9477000C9477000C94770074
:100030000C9477000C9477000C9477000C94770064
:100040000C9477000C9477000C9477000C94770054
:100050000C9477000C9477000C9477000C94770044
:100060000C9477000C9477000902120001010080C3
:100070003209040000000000000012011001FF001E
:100080000008C016DC050001010200011203410056
:10009000700070006C006500620075007300120350
:1000A0006F0062006400650076002E00610074003D
:1000B0000403090411241FBECFEFD8E0DEBFCDBF7B
:1000C00011E0A0E0B1E0EEECF5E002C005900D9289
:1000D000A230B107D9F721E0A2E0B1E001C01D9242
:1000E000A133B207E1F70E94C5020C94E5020C941B
:1000F0000000CF93DF9380911701835087FD80C06C
:1001000090911401209113012D3209F077C08830AD
:1001100009F074C0CCE0D0E0C91BD109C55EDE4F48
:1001200083EC809307018AE580930101109202011C
:100130008881807621F0CE010E94920256C08A8189
:10014000109210019981911106C01092110120E1C5
:1001500031E082E046C0953019F48093180133C035
:10016000963059F59B81913019F48AE790E01AC0D6
:10017000923019F488E690E015C09330C9F48111EB
:1001800008C080EB90E0909316018093150184E005
:1001900010C0813019F48EE990E004C0823041F43F
:1001A0008CE890E0909316018093150182E101C0E4
:1001B00080E090E49093020118C0983079F0993073
:1001C00031F480931A0120E131E080E00AC081E03F
:1001D0009A3009F080E020E131E003C02AE131E00B
:1001E00081E030931601209315019F81911104C085
:1001F0009E81981708F4892F8093000110921701AF
:100200008091010184FF4DC0809100018F3F09F46E
:1002100048C0C82F893008F0C8E08C1B80930001CB
:100220008091070198E8892780930701CC2361F129
:1002300080911501909116012091020126FF12C0B4
:10024000A8E0B1E027E031E020953095280F391F74
:100250004C2F4A0FF901EA0FFB1FE491ED934A136B
:10026000F9CF09C0E8E0F1E0DC012C2F2E0F3D9121
:1002700031932E13FCCF01962FEF2C0F820F911D7F
:1002800090931601809315016C2F88E091E00E94F5
:100290007A01CC5FCC3019F08FEF80930001C093CE
:1002A000010184E199B1947131F48150D9F7109230
:1002B000180110921201DF91CF910895E9E6F0E064
:1002C000808182608083E89A0895A82FB92F80E00A
:1002D00090E041E050EA609530E009C02D9182271E
:1002E0009795879510F084279527305EC8F36F5F48
:1002F000A8F30895EADF8D939D930895CF93CFB728
:10030000CF93DF93C3954C9BE9F74C9B0BC04C9B61
:1003100009C04C9B07C04C9B05C04C9B03C04C9B29
:1003200001C089C06F93C0911401DD27C55EDE4F07
:100330002F9365E54C9B03C02F916F91E6CF0F93F0
:100340001F934F9320E040E15F9309B1047104FBD8
:1003500027F93F9350E03BE039C0147140642F7798
:10036000012F5F5F1EC0406819B114712F77525082
:100370001FC0406409B12F770471D1F15F5F00C0E5
:1003800023C0406219B12F77147191F15F5F00C0F3
:1003900025C004711027515012F45D5F0000115008
:1003A00027952C3F19B1C8F61471012701502795E4
:1003B0002C3FC8F64227499309B1047110274F73A7
:1003C000115027952C3FA8F64695469519B1147102
:1003D00079F00127015027952C3F98F66B5A60F36E
:1003E000315009B1B0F600C011E01CBB002717C0A6
:1003F0003B503195C31BD04011E01CBB0881033C2E
:10040000F9F00B34E9F0209112011981110F121348
:10041000EDCF093651F10D3211F0013E39F700935D
:1004200019013F915F914F911F910F912F916F9102
:10043000CCB3C0FD67CFDF91CF91CFBFCF911895DF
:1004400020911901222369F310911701112339F525
:1004500034303AF1309317012093130110911401B5
:100460003BE0311B309314011CC000911701013097
:10047000B4F40AE53091010134FD14C00093010188
:10048000C7E0D1E013C0052710E000C000000BB9A1
:100490001AC0052710E0221F1DC010E021C04AE548
:1004A00002C032ED432FC4E1D0E032E01AB1146152
:1004B0005C9A0BB11AB954E120E865E320FF0527E7
:1004C0000BB9279517951C3FF0F66695B8F7B1F76D
:1004D00020FF05270BB9279517951C3FD0F62795C8
:1004E000179517FF052700001C3F0BB9B0F629919F
:1004F0003A9519F70B7E10911801110FC651D04093
:100500000BB911F01093120111E01CBB00611AB17C
:100510001B7E402F4B7E54E05A95F1F70BB91AB968
:100520004BB97FCFFC018181811114C082818093FE
:100530000301838180930401848180930501858177
:100540008093060183E091E090931601809315015A
:1005500084E00895813049F49281892F817090FF61
:1005600002C0289A10C028980895823061F485B19D
:1005700081708093030183E091E090931601809352
:10058000150181E0089580E008952EE088E190E073
:100590000FB6F894A895809360000FBE209360007A
:1005A0000E945E01549A80E0815041F0A895EFE9E5
:1005B000FFE03197F1F700C00000F6CF5498209A81
:0E05C0007894A8950E947900FCCFF894FFCFA4
:0205CE00FF5AD2
:00000001FF
